:0F0FFE00546F6E652047656E657261746F720087
:100FC000020D000002170000020F000104090000DA
:0C0FD00000000213000002110000C1002C
:100DC600E4F5A07580F04390F0120FEE7BFF7A0FEA
:100DD60079FE7D0E7C00120F31E50E647A450D70AA
:100DE60005F50F751004E50E6478450D7005F50FD1
:100DF600751002E50E6463450D7005F50F7510015B
:100E0600E50E6467450D70097FC67E01120EE78008
:100E1600EFE50E6468450D70097F957E01120EE7B9
:100E260080EFE50E646A450D70097F7E7E01120E25
:100E3600E780EFE50E646B450D70097F547E011265
:100E46000EE780EFE50E646C450D708D7F2F7E01F9
:050E5600120EE780EF21
:100EE700AC06AD07AE0FAF10120BC37C277D10CF3A
:100EF700CDCFCECCCE120BD58E178F18D3E5189445
:100F070000E517648094804020E4F511F5127580A0
:100F1700FF0512E512700205116408451170EFE52F
:0A0F270018151870D7151780D32293
:03002300020FA128
:100FA100C0D075D000C00730980BC298AF99750DAD
:0F0FB100008F0E8005309902C299D007D0D03240
:100F31008B218A2289238D24E524D39400401EAB82
:100F410021AA22A923120BAAFF120FDD7401252366
:0E0F5100F523E43522F5221524C29980DB2217
:100FDD00C2AFEFE5D024FF929B8F993099FDD2AF30
:010FED0022E1
:100FEE004398D0D2AFD2AC438920758DCCD28E220D
:100F5F00D3EF9400EE648094804015E4FCFD0DBD4A
:100F6F0000010CED64024C70F5EF1F70E31E80E082
:010F7F00224F
:100F8000AD07AC06EC1209AB7BDB7A0F79C9784070
:100F9000120800E4FBFA79C07841120909120CB674
:010FA000222E
:10080000EC4D6011E8497017ED33EC3304600DE4F2
:10081000FCFFFEFD22E933E8330470F8020A1912E6
:1008200009E458046009E4CC2481500628500902E8
:100830000A23284003020A20C0E0EB4A7044B98032
:1008400006D0E0FB020A0FEF4E701CBD8008EBFFE4
:10085000EAFEE9FD80EBE98DF0A4FEE5F00208E98F
:10086000E9CDF9EAFEEBFFEF89F0A4FCE5F0CE89D3
:10087000F0A42EFFE435F0CD89F0A42DFEE435F090
:100880008067EF4E7005BD80D780C3EF8BF0A4ACBE
:10089000F0EE8BF0A42CFCE435F0F8EF8AF0A42CF9
:1008A000E5F038FCE433CB8DF0A42CFCE5F03BF80C
:1008B000EE8AF0A42CFCE5F038F8E433CF89F0A4FC
:1008C0002CFCE5F038CF3400CE89F0A42FFFE5F002
:1008D0003EFEE433C98DF0A42EFEE5F039CD8AF05A
:1008E000A42FFFE5F03EFEE43DFD33D0E0FB5007D2
:1008F0000BBB000F020A23EC2CFCEF33FFEE33FEA0
:06090000ED33FD0209FBCE
:10090600020A23EC5D046005E859047003020A1923
:100916001209E4580460F6EC4860F2EC7004FDFE3F
:10092600FF22C860DB2481C85009C39860025006C4
:10093600020A209850CAF582E9294B4A7005AB8213
:10094600020A0F75F0007C1A7880C3EF9BEE9AEDD1
:1009560099400DC3EF9BFFEE9AFEED99FDE842F03C
:10096600DC23ACF0D0E0FFD0E0FED0E0FDAB82208F
:10097600E7101BEB60BAEC2CFCEF33FFEE33FEED19
:1009860033FD0209FBE803F830E705C0F075F00017
:10099600EF2FFFEE33FEED33FD40B830E7C280AAFD
:1009A60075F020800E75F010800575F0087D007ECC
:1009B600007F003392D530D503120C2AEC33401059
:1009C600EF33FFEE33FEED33FDEC33FCD5F0ED22D5
:0E09D600E5F0247EA2D513CC92E7CDCEFF2211
:100C58003A70FA83BCAAE9E43E81E0F8BF9DE9E670
:100C68003F80000039283C1ABB9969663DA335E3EB
:100C7800BF255DE73FC90FDB418DDBCCC44936EEAC
:100C880045C9913FC5B0F83D3F800000C317F53412
:100C9800452FFA73C60AFDDD120D4704A2E1920141
:100CA8001420E015900C587404120B5D8026120D68
:100CB8004730E102B20120E0EB8C198D1A8E1B8FB0
:100CC8001C900C6C7404120B5DA819A91AAA1BAB12
:100CD8001C120800ED4C6007300104EC6480FC2213
:100CE800120D47C0E08C198D1A8E1B8F1C900C902A
:100CF8007403120B5DA819A91AAA1BAB1C120800D1
:100D0800ECC519FCEDC51AFDEEC51BFEEFC51CFFB1
:100D1800900C807403120B5DD082A819A91AAA1B23
:100D2800AB1CE58230E007120909B20180A6EFCBBF
:100D3800FFEECAFEEDC9FDECC8FC1209098095ED6D
:100D480033EC547FCC33920124605007D0E0D0E0DC
:100D5800020A197B837AF97922783E120800EDF9A4
:100D680033ECF83324815011EFFBEEFA120B261204
:100D780009A6ECB2E7FC120A35ED33EC33602F24F8
:100D880003F8C313FCED92E7FDE82481E4501FEC5F
:100D9800F8EDF9EEFAEFFB120B26EF04C2E0FCF5D2
:100DA800821209B0ECB2E7FC120A35E58203FAEDCB
:0E0DB80033EC3360071413FCED92E7FDEA22E2
:1009E400E9D2E7C933E833F892D5EDD2E7CD33EC59
:0709F40033FC5002B2D522D2
:1009FB00EC30E7100FBF000C0EBE00080DBD00045D
:100A0B000BEB6014A2D5EB13FCED92E7FD2274FF08
:100A1B00FCFDFEFF22E480F8A2D574FF13FC7D8061
:030A2B00E480EF75
:100A2E00020A19E86480F8E933E83360110460F0D3
:100A3E00ED33EC337009E8FCE9FDEAFEEBFF22042E
:100A4E0060DED3EB9FEA9EE99DE8C2E78CF0C2F729
:100A5E0095F0400CE8CCF8E9CDF9EACEFAEBCFFBF5
:100A6E001209E485D0F05804700320D5B3E8047061
:100A7E00075002B2D5020A2392D5EC0460F7E4CCFB
:100A8E00C0E0C398F8603B94186008400DD0E0FBBE
:100A9E000209FBE4FBFAC9FC8028E830E406E4C94D
:100AAE00FBE4CAFCE830E305E4C9CACBFCE8540712
:100ABE006010F8C3E913F9EA13FAEB13FBEC13FC1D
:100ACE00D8F130F52FC3E49CFCEF9BFFEE9AFEEDC0
:100ADE0099FDD0E0FBEF4E4D4C701222DB03020A63
:100AEE0020EC2CFCEF33FFEE33FEED33FDED30E763
:100AFE00EB0209FBEF2BFFEE3AFEED39FDD0E0FBEA
:100B0E0050130BBB0003020A23ED13FDEE13FEEF91
:080B1E0013FFEC13FC0209FBBC
:100B2600EDD2E7CD33EC3392D524814006E4FFFEC7
:100B3600FDFC22FCE4CFCECDCC24E0501174FF8026
:100B4600EDC3CC13CCCD13CDCE13CECF13CF0470C3
:070B5600F030D5DE020C2A8D
:100B5D00C0E0EFFBEEFAEDF9ECF8120800D0E0F58D
:100B6D00F0EFFBEEFAEDF9ECF8120C38A3A3A3A30A
:100B7D00E8C0E0E9C0E0EAC0E0EBC0E0C0F0120878
:100B8D0000120C48A3A3A3A3120A35D0F0D0E0FBAA
:0D0B9D00D0E0FAD0E0F9D0E0F8D5F0D42295
:03000000020E5B92
:0C0E5B00787FE4F6D8FD758124020EA219
:100BAA00BB010689828A83E0225002E722BBFE0249
:090BBA00E32289828A83E493227C
:100BC300EF8DF0A4A8F0CF8CF0A428CE8DF0A42E46
:020BD300FE2200
:100BD500BC000BBE0029EF8DF084FFADF022E4CC04
:100BE500F875F008EF2FFFEE33FEEC33FCEE9DECCD
:100BF500984005FCEE9DFE0FD5F0E9E4CEFD22ED13
:100C0500F8F5F0EE8420D21CFEADF075F008EF2F5C
:100C1500FFED33FD4007985006D5F0F222C398FD4D
:050C25000FD5F0EA22EA
:0E0C2A00C3E49FFFE49EFEE49DFDE49CFC22DB
:100C3800E493FC740193FD740293FE740393FF2202
:100C4800E493F8740193F9740293FA740393FB2202
:100E6700020DC6E493A3F8E493A34003F68001F2CE
:100E770008DFF48029E493A3F85407240CC8C3338C
:100E8700C4540F4420C8834004F456800146F6DF5B
:100E9700E4800B0102040810204080900FC0E47E1C
:100EA700019360BCA3FF543F30E509541FFEE49350
:100EB700A360010ECF54C025E060A840B8E493A317
:100EC700FAE493A3F8E493A3C8C582C8CAC583CA42
:100ED700F0A3C8C582C8CAC583CADFE9DEE780BEFA
:010FDC000014
:00000001FF
