:100CAF0057656C636F6D6520746F20536861726157
:100CBF006E2773204D7573696320546F6E652047DF
:0A0CCF00656E657261746F7221009A
:080D3A0002080000020A00009B
:10080000E4F590F580120D2A7BFF7A0C79AF7D29F3
:100810007C00120C81E509647A450870097F1A7E14
:1008200007120C4480EFE5096478450870097F548D
:100830007E06120C4480EFE5096463450870097F69
:10084000F97E05120C4480EFE509647645087009CD
:100850007F527E05120C4480EFE509646245087002
:10086000097FBD7E04120C4480EFE509646E4508E3
:1008700070097F797E04120C4480EFE509646D45B0
:100880000870097FFC7E03120C4480EFE509642C9C
:10089000450870097F8D7E03120C4480EFE50964E2
:1008A0002E450870097F297E03120C4480EFE5096C
:1008B000642F450870097FFC7E02120C4480EFE52E
:1008C000096461450870097FA97E02120C4480EF1B
:1008D000E5096473450870097F5F7E02120C44804D
:1008E000EFE5096464450870097F3D7E02120C44FF
:1008F00080EFE5096466450870097FFE7E01120CF1
:100900004480EFE5096467450870097FC67E0112DF
:100910000C4480EFE5096468450870097F957E0105
:10092000120C4480EFE509646A450870097F7E7EF9
:1009300001120C4480EFE509646B450870097F548F
:100940007E01120C4480EFE509646C450870097F54
:100950002F7E01120C4480EFE5096471450870098F
:100960007F1E7E01120C4480EFE509647745087014
:10097000087FFFFE120C4480F0E5096465450870AD
:10098000087FE3FE120C4480F0E5096472450870AC
:10099000087FCAFE120C4480F0E5096474450870B3
:1009A000087FBFFE120C4480F0E5096479450870A9
:1009B000087FAAFE120C4480F0E5096475450870B2
:1009C000087F97FE120C4480F0E5096469450870C1
:1009D000087F8FFE120C4480F0E509646F450870B3
:1009E000087F7FFE120C4480F0E5096470450870B2
:1009F000087F72FE120C4480F0E5096431450870EE
:100A0000097FB47E06120C4480EFE5096432450884
:100A100070097FA37E05120C4480EFE5096433451D
:100A20000870097F067E05120C4480EFE5096434E6
:100A3000450870097F397E04120C4480EFE5096493
:100A400035450870097FC37E03120C4480EFE50929
:100A50006436450870097F5A7E03120C4480EFE526
:100A6000096437450870097FD27E02120C4480EF7A
:100A7000E5096438450870097F837E02120C4480C2
:100A8000EFE5096439450870097F1C7E02120C44A9
:100A900080EFE5096430450870097FE27E01120CA1
:100AA0004480EFE5096421450870097FAD7E01129D
:100AB0000C4480EFE5096440450870097F697E01B8
:100AC000120C4480EFE5096423450870097F417EDC
:100AD00001120C4480EFE5096424450870097F0E7B
:100AE0007E01120C4480EFE5096425450870087FFB
:100AF000F1FE120C4480F0E509645E450870087F41
:100B0000D6FE120C4480F0E5096426450870087F83
:100B1000B4FE120C4480F0E509642A450870087F91
:100B2000A1FE120C4480F0E5096428450870087F96
:100B300087FE120C4480F0E5096429450860030231
:0A0B400008157F78FE120C4480EDCA
:100C44008E0C8F0DAC0CAD0D7E277F10120BEF8E2A
:100C54000A8F0BD3E50B9400E50A64809480401C52
:100C6400D280AF0DAE0C120CD9C280AF0DAE0C12F7
:0D0C74000CD9E50B150B70DB150A80D7229B
:03002300020CFAD2
:100CFA00C0D075D000C00730980BC298AF9975085C
:0F0D0A00008F098005309902C299D007D0D032EE
:100C81008B0C8A0D890E8D0FE50FD39400401EAB9E
:100C91000CAA0DA90E120BD6FF120D197401250E07
:0E0CA100F50EE4350DF50D150FC29980DB221E
:100D1900C2AFEFE5D024FF929B8F993099FDD2AFF6
:010D290022A7
:100D2A004398D0D2AFD2AC438920758DCCD28E22D3
:100CD900D3EF9400EE648094804015E4FCFD0DBDD3
:100CE90000010CED64024C70F5EF1F70E31E80E00B
:010CF90022D8
:03000000020B4AA6
:0C0B4A00787FE4F6D8FD75810F020B9156
:100BD600BB010689828A83E0225002E722BBFE021D
:090BE600E32289828A83E4932250
:100BEF00BC000BBE0029EF8DF084FFADF022E4CCEA
:100BFF00F875F008EF2FFFEE33FEEC33FCEE9DECB3
:100C0F00984005FCEE9DFE0FD5F0E9E4CEFD22EDF8
:100C1F00F8F5F0EE8420D21CFEADF075F008EF2F42
:100C2F00FFED33FD4007985006D5F0F222C398FD33
:050C3F000FD5F0EA22D0
:100B5600020800E493A3F8E493A34003F68001F2AD
:100B660008DFF48029E493A3F85407240CC8C333A0
:100B7600C4540F4420C8834004F456800146F6DF6F
:100B8600E4800B0102040810204080900D3AE47EB8
:100B9600019360BCA3FF543F30E509541FFEE49364
:100BA600A360010ECF54C025E060A840B8E493A32B
:100BB600FAE493A3F8E493A3C8C582C8CAC583CA56
:100BC600F0A3C8C582C8CAC583CADFE9DEE780BE0E
:010D420000B0
:00000001FF
