:100CE40004143F80000004083F8000000218000044
:100A3500D294D295D296D297C290D291D292D29395
:100A4500209413120CBF3094FDE4F517F5167515B7
:100A55008075143FD200209514120CBF3095FD759A
:100A650017A075168975158875143FD20020961341
:100A7500120CBF3096FDE4F517F516751590751433
:100A85003FD200209714120CBF3097FD7517A27541
:100A950016B475159775143FD200D290C291D292B3
:100AA500D293209413120CBF3094FDE4F517F5167C
:100AB5007515A075143FD200209514120CBF309502
:100AC500FD7517937516A97515AA75143FD20020E3
:100AD5009614120CBF3096FD751719751604751509
:100AE500B675143FD200209713120CBF3097FDE462
:100AF500F517F5167515C075143FD200D290D29131
:100B0500C292D293209414120CBF3094FD7517CD68
:100B15007516CC7515CC75143FD200209513120CA3
:100B2500BF3095FDE4F517F5167515D875143FD248
:100B350000209614120CBF3096FD7517F375168EAE
:100B45007515E375143FD200209713120CBF30972B
:100B5500FDE4F517F5167515F075143FD200D29022
:100B6500D291D292C293209413120CBF3094FDE41B
:100B7500F50BF50A75098075083FD200209513120B
:100B85000CBF3095FDE4F50BF50A75098075084035
:100B9500D200209613120CBF3096FDE4F50BF50A32
:100BA500750980750841D200209712120CBF309745
:0E0BB500FDE4F50BF50AF509750842D20022A1
:100C9300E4F51AF51BAB07AA06A905A804FF7E50C5
:100CA3007DC37C471209091209A68E1A8F1BD280B5
:0C0CB300120CC3C280AF1BAE1A020CC3AF
:100C4F00E4F5807590F0F50FF50E750D7A750C447F
:100C5F00120A353000FA120A35AF0FAE0EAD0DACD9
:100C6F000CAB0BAA0AA909A808120800AB17AA1601
:100C7F00A915A8141208008F138E128D118C101243
:040C8F000C9380CF73
:040CBF007F0A7E002A
:100CC300D3EF9400EE648094804015E4FCFD0DBDE9
:100CD30000010CED64144C70F5EF1F70E31E80E00F
:010CE30022EE
:10080000EC4D6011E8497017ED33EC3304600DE4F2
:10081000FCFFFEFD22E933E8330470F8020A1212ED
:1008200009DD58046009E4CC2481500628500902EF
:100830000A1C284003020A19C0E0EB4A7044B98040
:1008400006D0E0FB020A08EF4E701CBD8008EBFFEB
:10085000EAFEE9FD80EBE98DF0A4FEE5F00208E98F
:10086000E9CDF9EAFEEBFFEF89F0A4FCE5F0CE89D3
:10087000F0A42EFFE435F0CD89F0A42DFEE435F090
:100880008067EF4E7005BD80D780C3EF8BF0A4ACBE
:10089000F0EE8BF0A42CFCE435F0F8EF8AF0A42CF9
:1008A000E5F038FCE433CB8DF0A42CFCE5F03BF80C
:1008B000EE8AF0A42CFCE5F038F8E433CF89F0A4FC
:1008C0002CFCE5F038CF3400CE89F0A42FFFE5F002
:1008D0003EFEE433C98DF0A42EFEE5F039CD8AF05A
:1008E000A42FFFE5F03EFEE43DFD33D0E0FB5007D2
:1008F0000BBB000F020A1CEC2CFCEF33FFEE33FEA7
:06090000ED33FD0209F4D5
:10090600020A1CEC5D046005E859047003020A1231
:100916001209DD580460F6EC4860F2EC7004FDFE46
:10092600FF22C860DB2481C85009C39860025006C4
:10093600020A199850CAF582E9294B4A7005AB821A
:10094600020A0875F0007C1A7880C3EF9BEE9AEDD8
:1009560099400DC3EF9BFFEE9AFEED99FDE842F03C
:10096600DC23ACF0D0E0FFD0E0FED0E0FDAB82208F
:10097600E7101BEB60BAEC2CFCEF33FFEE33FEED19
:1009860033FD0209F4E803F830E705C0F075F0001E
:10099600EF2FFFEE33FEED33FD40B830E7C280AAFD
:1009A600EDD2E7CD33EC3392D524814006E4FFFE49
:1009B600FDFC22FCE4CFCECDCC24E0501174FF80A8
:1009C600EDC3CC13CCCD13CDCE13CECF13CF047045
:0709D600F030D5DE020A2714
:1009DD00E9D2E7C933E833F892D5EDD2E7CD33EC60
:0709ED0033FC5002B2D522D9
:1009F400EC30E7100FBF000C0EBE00080DBD000464
:100A04000BEB6014A2D5EB13FCED92E7FD2274FF0F
:100A1400FCFDFEFF22E480F8A2D574FF13FC7D8068
:030A2400E480EF7C
:03000000020BC32D
:0C0BC300787FE4F6D8FD758120020C0A52
:0E0A2700C3E49FFFE49EFEE49DFDE49CFC22E0
:100BCF00020C4FE493A3F8E493A34003F68001F2E1
:100BDF0008DFF48029E493A3F85407240CC8C33327
:100BEF00C4540F4420C8834004F456800146F6DFF6
:100BFF00E4800B0102040810204080900CE4E47E96
:100C0F00019360BCA3FF543F30E509541FFEE493EA
:100C1F00A360010ECF54C025E060A840B8E493A3B1
:100C2F00FAE493A3F8E493A3C8C582C8CAC583CADC
:100C3F00F0A3C8C582C8CAC583CADFE9DEE780BE94
:010CF40000FF
:00000001FF
