:0C116100000000D30199024202C50316F1
:100FF6000263000002770000027500000271000023
:10100600122254595045204F462057415645464FC7
:10101600524D0A000B34414D504C49545544450A33
:10102600000B3F4652455155454E43590A00084A62
:101036004F46465345540A001152445554592043CD
:0D10460059434C4520696E20250A00C10069
:10111300D3EF9400EE64809480400DE4FD0DBD0593
:08112300FCEF1F70EB1E80E8D9
:01112B0022A1
:08116D007598D0D2AFD2AC227C
:0C115500758DCC758BCC758920D28E2254
:10112C00D29443C32043C30143C31043C30843C3F6
:08113C000443B10443C3402247
:03004B000210F7A9
:1010F700C0E0C0D075D000C007AFC4EF2480700532
:0C11070085C521D200D007D0D0D0E03246
:030023000210A820
:1010A800C0E0C0D030990AC2997577007578018080
:1010B80018309815C298E599B46E08756300756480
:0E10C800008006757500757601D0D0D0E0323C
:061054007B007D0A7C0018
:0A105A008B0F8A1089118C128D1380
:10106400E4F514F515C3E5159513E5126480F8E568
:1010740014648098502DAB0FAA10A9118515828590
:101084001483120AD6FFE5D024FF929B8F99E5784A
:10109400457760FAE4F577F5780515E51570C6052A
:0310A4001480C2F3
:0110A7002226
:10114400E576457560FAE599120B03E4F575F576D5
:011154002278
:040ED6007F047E0017
:100EDA00E4FDFCC3ED9FEE6480F8EC648098502733
:100EEA00E576457560FAAB99EB24D0FBE434FFFA5A
:100EFA00ED25E02411F8A60208A603E4F575F576B7
:100F0A000DBD00010C80CCEF64044E7039AE13AFF6
:100F1A0014FC7D64120B15AA06AB07AE11AF127C46
:100F2A00037DE8120B15EF2BFBEE3AFAAE15AF165E
:100F3A007C007D0A120B15EF2BFFEE3AFEE5182F07
:100F4A00F510E5178012AE11AF127C007D0A120B64
:0F0F5A0015E5142FF510E5133EF50FAE0FAF1090
:010F69002265
:0410D600AF74AE73D2
:0410DA00AD07AC06AC
:1010DE00EC4470FFC294F5C53000FDC200AF058F21
:0810EE00C53000FDC200D294E0
:0110F60022D7
:100BC000E4F5A05380F04390F012116D121155120C
:0B0BD000112CE56445636003020CE299
:100BDB00FB7A0079227D11FC12105AAB0CAA0DA9DD
:100BEB000E121144AB0CAA0DA90E120ABDFFB47361
:100BFB00087563007564018016EFB47008756300A7
:100C0B00756402800AEFB474BE756300756403E407
:100C1B00F571F5727A007934121054120ED68E6972
:100C2B008F6A7A00793F121054120ED68E658F663A
:100C3B007B007A00794A7D077C0012105A120ED67F
:100C4B008E678F68AE69AF6A7C007D64120B278E4E
:100C5B006F8F70AE67AF687C007D64120B278E6D53
:100C6B008F6EE564640245636003020BD2FB7A006E
:100C7B0079527D0FFC12105A7F027E00120EDA8E13
:100C8B006B8F6CE56A24C4FFE5693409FEE5682FB8
:100C9B00FDE5673EFCE4120A037BFC7AA9795178E7
:100CAB003F1208F8120A3C8E088F09C374C4956A68
:100CBB00FF74099569FEE5682FFDE5673EFCE412BC
:100CCB000A037BFC7AA97951783F1208F8120A3C87
:040CDB008E0A8F0BE3
:100CDF00020BD2E564640145636003020DD3E57234
:100CEF00641845717004F571F572C3E5729412E5DD
:100CFF007164809480401974179572FFE49571FEAA
:100D0F00EF25E0FFEE33FE74612FF5827411801D25
:100D1F00C3E572940CE571648094804032E57225CE
:100D2F00E0FFE57133FE74492FF58274113EF583B0
:100D3F00E493FE740193FFAC6FAD70120B157C0042
:100D4F007D0A120B7CC374FF9FFB74079E804CC3FC
:100D5F00E5729406E571648094804010740B95726F
:100D6F00FFE49571FEEF25E0FFEE8007E57225E0C9
:100D7F00FFE57133FE74612FF58274113EF583E444
:100D8F0093FE740193FFAC6FAD70120B157C007D59
:100D9F000A120B7CEF24FFFBEE3407FAAE6DAF6E39
:100DAF007C037D33120B157C007D0A120B7CEF2B1D
:100DBF00F574EE3AF5730572E57270020571121053
:100DCF00D6020CE2E56464024563703BE572640A87
:100DDF0045717004F571F572AE6BAF6C7C007D0AD6
:100DEF00120B27C3E5729FE5719E50088508738526
:100DFF0009748006850A73850B740572E57270029B
:100E0F0005711210D680BDE564640345636003026B
:100E1F000ED5E572641445717004F571F572C3E572
:100E2F0072940AE57164809480AC71AD72EC501AC3
:100E3F00120A037BCD7ACC794C783E1208F8E4FB8A
:100E4F00FA798078BF1208078020120A037BCD7AC7
:100E5F00CC794C783E1208F8A804A905AA06AB076E
:100E6F00E4FFFE7D407C40120803C004C005C006AD
:100E7F00C007AC69AD6AE4120A03D003D002D001F7
:100E8F00D0001208F8C004C005C006C007E56824EA
:100E9F00C4FDE5673409FCE4120A03D003D002D085
:100EAF0001D0001208077BFC7AA97951783F12080C
:100EBF00F8120A3C8E738F740572E5727002057119
:060ECF001210D6020E16FF
:010ED50022FA
:10080000020AA8E86480F8E933E83360110460F074
:10081000ED33EC337009E8FCE9FDEAFEEBFF22045E
:1008200060DED3EB9FEA9EE99DE8C2E78CF0C2F759
:1008300095F0400CE8CCF8E9CDF9EACEFAEBCFFB25
:10084000120A7385D0F05804700320D5B3E8047001
:10085000075002B2D5020AB292D5EC0460F7E4CC9C
:10086000C0E0C398F8603B94186008400DD0E0FBEE
:10087000020A8AE4FBFAC9FC8028E830E406E4C9ED
:10088000FBE4CAFCE830E305E4C9CACBFCE8540742
:100890006010F8C3E913F9EA13FAEB13FBEC13FC4D
:1008A000D8F130F52FC3E49CFCEF9BFFEE9AFEEDF0
:1008B00099FDD0E0FBEF4E4D4C701222DB03020A93
:1008C000AFEC2CFCEF33FFEE33FEED33FDED30E704
:1008D000EB020A8AEF2BFFEE3AFEED39FDD0E0FB8A
:1008E00050130BBB0003020AB2ED13FDEE13FEEF33
:0808F00013FFEC13FC020A8A5D
:1008F800EC4D6011E8497017ED33EC3304600DE4FA
:10090800FCFFFEFD22E933E8330470F8020AA8125E
:100918000A7358046009E4CC24815006285009025F
:100928000AB2284003020AAFC0E0EB4A7044B9801B
:1009380006D0E0FB020A9EEF4E701CBD8008EBFF5C
:10094800EAFEE9FD80EBE98DF0A4FEE5F00209E19D
:10095800E9CDF9EAFEEBFFEF89F0A4FCE5F0CE89DA
:10096800F0A42EFFE435F0CD89F0A42DFEE435F097
:100978008067EF4E7005BD80D780C3EF8BF0A4ACC5
:10098800F0EE8BF0A42CFCE435F0F8EF8AF0A42C00
:10099800E5F038FCE433CB8DF0A42CFCE5F03BF813
:1009A800EE8AF0A42CFCE5F038F8E433CF89F0A403
:1009B8002CFCE5F038CF3400CE89F0A42FFFE5F009
:1009C8003EFEE433C98DF0A42EFEE5F039CD8AF061
:1009D800A42FFFE5F03EFEE43DFD33D0E0FB5007D9
:1009E8000BBB000F020AB2EC2CFCEF33FFEE33FE18
:0609F800ED33FD020A8A46
:1009FE0075F020800E75F010800575F0087D007E74
:100A0E00007F003392D530D503120BB2EC33401079
:100A1E00EF33FFEE33FEED33FDEC33FCD5F0ED227C
:0E0A2E00E5F0247EA2D513CC92E7CDCEFF22B8
:100A3C00EDD2E7CD33EC3392D524814006E4FFFEB2
:100A4C00FDFC22FCE4CFCECDCC24E0501174FF8011
:100A5C00EDC3CC13CCCD13CDCE13CECF13CF0470AE
:070A6C00F030D5DE020BB2F1
:100A7300E9D2E7C933E833F892D5EDD2E7CD33ECC9
:070A830033FC5002B2D52242
:100A8A00EC30E7100FBF000C0EBE00080DBD0004CD
:100A9A000BEB6014A2D5EB13FCED92E7FD2274FF79
:100AAA00FCFDFEFF22E480F8A2D574FF13FC7D80D2
:030ABA00E480EFE6
:03000000020F6A82
:0C0F6A00787FE4F6D8FD758178020FB1A5
:100ABD00BB010689828A83E0225002E722BBFE0237
:090ACD00E32289828A83E493226A
:100AD600BB010CE58229F582E5833AF583E02250D5
:100AE60006E92582F8E622BBFE06E92582F8E2221F
:0D0AF600E58229F582E5833AF583E4932239
:100B0300BB010689828A83F0225002F722BBFE01D1
:020B1300F322CB
:100B1500EF8DF0A4A8F0CF8CF0A428CE8DF0A42EF4
:020B2500FE22AE
:100B2700BC000BBE0029EF8DF084FFADF022E4CCB2
:100B3700F875F008EF2FFFEE33FEEC33FCEE9DEC7B
:100B4700984005FCEE9DFE0FD5F0E9E4CEFD22EDC1
:100B5700F8F5F0EE8420D21CFEADF075F008EF2F0B
:100B6700FFED33FD4007985006D5F0F222C398FDFC
:050B77000FD5F0EA2299
:100B7C00C2D5EC30E709B2D5E4C39DFDE49CFCEE94
:100B8C0030E715B2D5E4C39FFFE49EFE120B27C3DA
:100B9C00E49DFDE49CFC8003120B2730D507C3E4D5
:060BAC009FFFE49EFE2203
:0E0BB200C3E49FFFE49EFEE49DFDE49CFC2254
:100F7600020BC0E493A3F8E493A34003F68001F2C6
:100F860008DFF48029E493A3F85407240CC8C3337C
:100F9600C4540F4420C8834004F456800146F6DF4B
:100FA600E4800B0102040810204080900FF6E47ED6
:100FB600019360BCA3FF543F30E509541FFEE49340
:100FC600A360010ECF54C025E060A840B8E493A307
:100FD600FAE493A3F8E493A3C8C582C8CAC583CA32
:100FE600F0A3C8C582C8CAC583CADFE9DEE780BEEA
:01105300009C
:00000001FF
