:0A091F000213000002110000C100E5
:10090500D29443C32043C30143C31043C30843C325
:0A0915000443B10443C340D2AF22F3
:03004B000208E9BF
:1008E900C0E0C0D075D000C007AFC4EF2480700548
:0C08F90085C508D200D007D0D0D0E03276
:0408CC00AD07AC06C2
:1008D000EC4470FFC294F5C53000FDC200AF058F37
:0808E000C53000FDC200D294F6
:0108E80022ED
:10088C00D3EF9400EE648094804015E4FCFD0DBD24
:10089C0000010CED64034C70F5EF1F70E31E80E05B
:0108AC002229
:1008AD00E4F5A05380F04390F0120905F515751687
:0F08BD005FF511751205AF16AE151208CC80F756
:03000000020800F3
:0C080000787FE4F6D8FD758120020847DF
:10080C000208ADE493A3F8E493A34003F68001F24D
:10081C0008DFF48029E493A3F85407240CC8C333ED
:10082C00C4540F4420C8834004F456800146F6DFBC
:10083C00E4800B010204081020408090091FE47E24
:10084C00019360BCA3FF543F30E509541FFEE493B1
:10085C00A360010ECF54C025E060A840B8E493A378
:10086C00FAE493A3F8E493A3C8C582C8CAC583CAA3
:10087C00F0A3C8C582C8CAC583CADFE9DEE780BE5B
:0109290000CD
:00000001FF
