:02094800C100EC
:10091400E4F5A0F59012092E7FFF7E0F1208F97FEF
:0A092400107E271208D8D29780FE3B
:10092E00D29443C32043C30143C31053C3F743C3FD
:0A093E000443B104D2AF43C34022CA
:0208F900AD0749
:1008FB007E01AF06AE05C2948FC53000FDC2008EDF
:08090B00C53000FDC200D294CA
:0109130022C1
:03004B0002088C1C
:10088C00C0E0C0F0C083C082C0D075D000C000C032
:10089C0001C002C003C004C005C006C007D295AF9A
:1008AC00C4EF24807002D2007F107E271208D8C2B9
:1008BC0095D007D006D005D004D003D002D001D0FB
:0C08CC0000D0D0D082D083D0F0D0E03239
:1008D800D3EF9400EE648094804015E4FCFD0DBDD8
:1008E80000010CED64144C70F5EF1F70E31E80E0FE
:0108F80022DD
:03000000020800F3
:0C080000787FE4F6D8FD758120020847DF
:10080C00020914E493A3F8E493A34003F68001F2E5
:10081C0008DFF48029E493A3F85407240CC8C333ED
:10082C00C4540F4420C8834004F456800146F6DFBC
:10083C00E4800B0102040810204080900948E47EFB
:10084C00019360BCA3FF543F30E509541FFEE493B1
:10085C00A360010ECF54C025E060A840B8E493A378
:10086C00FAE493A3F8E493A3C8C582C8CAC583CAA3
:10087C00F0A3C8C582C8CAC583CADFE9DEE780BE5B
:01094A0000AC
:00000001FF
