:02091500C1001F
:1008FE00E4F5B0F5A05390EF5380F01208E47FFFBB
:07090E007E0F1208C980F7FB
:1008E400D29443C32043C30143C31053C3F743C348
:0A08F4000443B104D2AF43C3402215
:0208C900AD0779
:1008CB007E01AF06AE05C2948FC53000FDC2008E0F
:0808DB00C53000FDC200D294FB
:0108E30022F2
:03004B000208ADFB
:1008AD00C0E0C0D075D000C007AFC4EF2480700584
:0C08BD0085C508D200D007D0D0D0E032B2
:10088C00D3EF9400EE648094804015E4FCFD0DBD24
:10089C0000010CED64144C70F5EF1F70E31E80E04A
:0108AC002229
:03000000020800F3
:0C080000787FE4F6D8FD758120020847DF
:10080C000208FEE493A3F8E493A34003F68001F2FC
:10081C0008DFF48029E493A3F85407240CC8C333ED
:10082C00C4540F4420C8834004F456800146F6DFBC
:10083C00E4800B0102040810204080900915E47E2E
:10084C00019360BCA3FF543F30E509541FFEE493B1
:10085C00A360010ECF54C025E060A840B8E493A378
:10086C00FAE493A3F8E493A3C8C582C8CAC583CAA3
:10087C00F0A3C8C582C8CAC583CADFE9DEE780BE5B
:0109170000DF
:00000001FF
