:02094B00C100E9
:10091700E4F5A0F5901209317FFF7E0F1208FC7FE6
:0A092700107E271208DBD29780FE35
:10093100D29443C32043C30143C31053C3F743C3FA
:0A0941000443B104D2AF43C34022C7
:0208FC00AD0746
:1008FE007E01AF06AE05C2948FC53000FDC2008EDC
:08090E00C53000FDC200D294C7
:0109160022BE
:03004B0002088C1C
:10088C00C0E0C0F0C083C082C0D075D000C000C032
:10089C0001C002C003C004C005C006C007D295AF9A
:1008AC00C4EF2480700585C508D2007F107E271206
:1008BC0008DBC295D007D006D005D004D003D002F7
:0F08CC00D001D000D0D0D082D083D0F0D0E03295
:1008DB00D3EF9400EE648094804015E4FCFD0DBDD5
:1008EB0000010CED64144C70F5EF1F70E31E80E0FB
:0108FB0022DA
:03000000020800F3
:0C080000787FE4F6D8FD758120020847DF
:10080C00020917E493A3F8E493A34003F68001F2E2
:10081C0008DFF48029E493A3F85407240CC8C333ED
:10082C00C4540F4420C8834004F456800146F6DFBC
:10083C00E4800B010204081020408090094BE47EF8
:10084C00019360BCA3FF543F30E509541FFEE493B1
:10085C00A360010ECF54C025E060A840B8E493A378
:10086C00FAE493A3F8E493A3C8C582C8CAC583CAA3
:10087C00F0A3C8C582C8CAC583CADFE9DEE780BE5B
:01094D0000A9
:00000001FF
