:02091B00C10019
:1008E700E4F5A0F5901209017FFF7E0F1208AD7F96
:0A08F700107E2712088CD29780EEC5
:10090100D29443C32043C30143C31053C3F743C32A
:0A0911000443B104D2AF43C34022F7
:0408AD00AD07AC06E1
:1008B100EC4470FFC294F5C53000FDC200AF058F56
:0808C100C53000FDC200D29415
:0108C900220C
:03004B000208CADE
:1008CA00C0E0C0D075D000C007D295AFC4EF248075
:0D08DA007002D200C295D007D0D0D0E0321D
:10088C00D3EF9400EE648094804015E4FCFD0DBD24
:10089C0000010CED64144C70F5EF1F70E31E80E04A
:0108AC002229
:03000000020800F3
:0C080000787FE4F6D8FD758120020847DF
:10080C000208E7E493A3F8E493A34003F68001F213
:10081C0008DFF48029E493A3F85407240CC8C333ED
:10082C00C4540F4420C8834004F456800146F6DFBC
:10083C00E4800B010204081020408090091BE47E28
:10084C00019360BCA3FF543F30E509541FFEE493B1
:10085C00A360010ECF54C025E060A840B8E493A378
:10086C00FAE493A3F8E493A3C8C582C8CAC583CAA3
:10087C00F0A3C8C582C8CAC583CADFE9DEE780BE5B
:01091D0000D9
:00000001FF
