:02092A00C1000A
:10088C00E4F5B0F5A05390EF5380F01209107FFF00
:10089C007E001208F57F107E271208B87FB17E000B
:0C08AC001208F57F107E271208B880E2C9
:10091000D29443C32043C30143C31053C3F743C31B
:0A0920000443B104D2AF43C34022E8
:0208F500AD074D
:1008F7007E01AF06AE05C2948FC53000FDC2008EE3
:08090700C53000FDC200D294CE
:01090F0022C5
:03004B000208D9CF
:1008D900C0E0C0D075D000C007AFC4EF2480700558
:0C08E90085C508D200D007D0D0D0E03286
:1008B800D3EF9400EE648094804015E4FCFD0DBDF8
:1008C80000010CED64144C70F5EF1F70E31E80E01E
:0108D80022FD
:03000000020800F3
:0C080000787FE4F6D8FD758120020847DF
:10080C0002088CE493A3F8E493A34003F68001F26E
:10081C0008DFF48029E493A3F85407240CC8C333ED
:10082C00C4540F4420C8834004F456800146F6DFBC
:10083C00E4800B010204081020408090092AE47E19
:10084C00019360BCA3FF543F30E509541FFEE493B1
:10085C00A360010ECF54C025E060A840B8E493A378
:10086C00FAE493A3F8E493A3C8C582C8CAC583CAA3
:10087C00F0A3C8C582C8CAC583CADFE9DEE780BE5B
:01092C0000CA
:00000001FF
