:100C2B0057656C636F6D6520746F204D75736963C9
:100C3B0020546F6E652047656E657261746F72210B
:010C4B0000A8
:0C0C8C0002080000020C0000020A000137
:100B8F008E0E8F0FAC0EAD0FAE0AAF0B120B287C73
:100B9F00277D10CFCDCFCECCCE120B3A8E0C8F0D32
:100BAF00D3E50D9400E50C648094804014D280123C
:100BBF000BFFC280120BFFE50D150D70E3150C80B6
:020BCF00DF2223
:10080000E4F590F580120C7C7BFF7A0C792B7D202F
:100810007C00120BD1E509647A45087005F50A756C
:100820000B04E509647845087005F50A750B02E5C7
:1008300009646345087005F50A750B01E5096467ED
:10084000450870097FC67E01120B8F80EFE50964B1
:1008500068450870097F957E01120B8F80EFE509CE
:10086000646A450870097F7E7E01120B8F80EFE578
:1008700009646B450870097F547E01120B8F80EF6D
:10088000E509646C450870097F2F7E01120B8F808B
:10089000EFE5096471450870097F1E7E01120B8F18
:1008A00080EFE5096477450870087FFFFE120B8F23
:1008B00080F0E5096465450870087FE3FE120B8F40
:1008C00080F0E5096472450870087FCAFE120B8F3C
:1008D00080F0E5096474450870087FBFFE120B8F35
:1008E00080F0E5096479450870087FAAFE120B8F35
:1008F00080F0E5096475450870087F97FE120B8F3C
:1009000080F0E5096469450870087F8FFE120B8F3F
:1009100080F0E509646F450870087F7FFE120B8F39
:1009200080F0E5096470450870087F72FE120B8F35
:1009300080F0E5096421450870097FB47E06120B3A
:100940008F80EFE5096440450870097FA37E05129A
:100950000B8F80EFE5096423450870097F067E054B
:10096000120B8F80EFE5096424450870097F397EFA
:1009700004120B8F80EFE5096425450870097FC3D9
:100980007E03120B8F80EFE509645E450870097FD6
:100990005A7E03120B8F80EFE50964264508700923
:1009A0007FD27E02120B8F80EFE509642A45087022
:1009B000097F837E02120B8F80EFE50964284508CA
:1009C00070097F1C7E02120B8F80EFE509642945B8
:1009D0000870097FE27E01120B8F80EFE509643118
:1009E000450870097FAD7E01120B8F80EFE5096429
:1009F00032450870097F697E01120B8F80EFE5098F
:100A00006433450870097F417E01120B8F80EFE54A
:100A1000096434450870097F0E7E01120B8F80EF48
:100A2000E5096435450870087FF1FE120B8F80F0F0
:100A3000E5096436450870087FD6FE120B8F80F0FA
:100A4000E5096437450870087FB4FE120B8F80F00B
:100A5000E5096438450870087FA1FE120B8F80F00D
:100A6000E5096439450870087F87FE120B8F80F016
:100A7000E5096430450860030208157F78FE120B13
:030A80008F80ED77
:03002300020C4C80
:100C4C00C0D075D000C00730980BC298AF9975080A
:0F0C5C00008F098005309902C299D007D0D0329D
:100BD1008B0E8A0F89108D11E511D39400401EAB45
:100BE1000EAA0FA910120B0FFF120C6B7401251026
:0E0BF100F510E4350FF50F1511C29980DB22C7
:100C6B00C2AFEFE5D024FF929B8F993099FDD2AFA5
:010C7B002256
:100C7C004398D0D2AFD2AC438920758DCCD28E2282
:0B0BFF00AC0AAD0BAE0EAF0F120B28BE
:100C0A00D3EF9400EE648094804015E4FCFD0DBDA2
:100C1A0000010CED64024C70F5EF1F70E31E80E0DA
:010C2A0022A7
:03000000020A836E
:0C0A8300787FE4F6D8FD758111020ACAE4
:100B0F00BB010689828A83E0225002E722BBFE02E4
:090B1F00E32289828A83E4932217
:100B2800EF8DF0A4A8F0CF8CF0A428CE8DF0A42EE1
:020B3800FE229B
:100B3A00BC000BBE0029EF8DF084FFADF022E4CC9F
:100B4A00F875F008EF2FFFEE33FEEC33FCEE9DEC68
:100B5A00984005FCEE9DFE0FD5F0E9E4CEFD22EDAE
:100B6A00F8F5F0EE8420D21CFEADF075F008EF2FF8
:100B7A00FFED33FD4007985006D5F0F222C398FDE9
:050B8A000FD5F0EA2286
:100A8F00020800E493A3F8E493A34003F68001F275
:100A9F0008DFF48029E493A3F85407240CC8C33368
:100AAF00C4540F4420C8834004F456800146F6DF37
:100ABF00E4800B0102040810204080900C8CE47E2F
:100ACF00019360BCA3FF543F30E509541FFEE4932C
:100ADF00A360010ECF54C025E060A840B8E493A3F3
:100AEF00FAE493A3F8E493A3C8C582C8CAC583CA1E
:100AFF00F0A3C8C582C8CAC583CADFE9DEE780BED6
:010C9800005B
:00000001FF
