:100E7F0046202D2046757220456C69736520627976
:100E8F002042656574686F76616E200042202D20C8
:0F0E9F00426972746864617920736F6E67200016
:080F410002080000020A000092
:10080000E4F590F580120F317BFF7A0E797F7D1B26
:100810007C00120EAE7BFF7A0E799B7D127C00125B
:100820000EAEE509644645086003020A477FBFFE35
:10083000120E227FB47E00120E227FBF7E00120EA7
:10084000227FB47E00120E227FBF7E00120E227F16
:10085000FF7E00120E227FCA7E00120E227FE37EF0
:1008600000120E227F1E7E01120E22E5096446450B
:10087000086003020A47120EDC7FC67E01120E22B8
:10088000120E1E7F1E7E01120E227FFF7E00120EB0
:1008900022E509644645086003020A47120EDC128D
:1008A0000E1E7F0E7E01120E227FFF7E00120E2290
:1008B0007FE37E00120E22E50964464508600302CC
:1008C0000A47120EDC7FBF7E00120E227FB47E002C
:1008D000120E227FBF7E00120E227FB47E00120E07
:1008E000227FBF7E00120E227FFF7E00120E227F2B
:1008F000CA7E00120E227FE37E00120E227F1E7E31
:1009000001120E22E509644645086003020A4712F7
:100910000EDC7FC67E01120E22120E1E7F1E7E018D
:10092000120E227FFF7E00120E22E5096446450862
:100930006003020A47120EDC120E1E7FE37E0012D5
:100940000E227FFF7E00120E227F1E7E01120E22DB
:10095000E509644645086003020A477FD07E071216
:100960000EE07FFF7E00120E227FE37E00120E2239
:100970007FCA7E00120E227FBF7E00120E22E50982
:10098000644645086003020A47120EDC7F2F7E0191
:10099000120E227FAA7E00120E227FBF7E00120E50
:1009A000227FCA7E00120E22E509644645086003D4
:1009B000020A47120EDC7F547E01120E227FBF7E98
:1009C00000120E227FCA7E00120E227FE37E0012EA
:1009D0000E22E50964464508706D120EDC120E1EEB
:1009E0007FCA7E00120E227FE37E00120E227FFF5E
:1009F0007E00120E22E50964464508704A120EDC9C
:100A0000120E1E7FD07E07120EE0120E1E7FD07EC9
:100A100007120EE07FBF7E00120E227FD07E0712EB
:100A20000EE07FBF7E00120E227FD07E07120EE006
:100A3000120E1E7FD07E07120EE0120E1E7F107E59
:100A400027120EE0020822E509644245086003020D
:100A500008227FC67E01120E227FD07E07120EE092
:100A60007FC67E01120E227F957E01120E22120E8B
:100A7000DC7FC67E01120E22120EDC7F547E011234
:100A80000E22120EDC120E1E120EDC120EDC7FC6BF
:100A90007E01120E227FD07E07120EE07FC67E01FD
:100AA000120E227F957E01120E22120EDC7FC67E70
:100AB00001120E22120EDC7F2F7E01120E22120E68
:100AC000DC7F547E01120E22120EDC120EDC7FC679
:100AD0007E01120E227FD07E07120EE07FC67E01BD
:100AE000120E227FE37E00120E22120EDC7F1E7E8B
:100AF00001120E22120EDC7F547E01120E22120E03
:100B0000DC120E1E120EDC120EDC7FF17E00120EC5
:100B1000227FD07E07120EE07FF17E00120E227F30
:100B20001E7E01120E22120EDC7F547E01120E2256
:100B3000120EDC7F2F7E01120E22120EDC7F547EFD
:100B400001120E22120EDC7F107E27120EE0020A26
:010B5000475D
:040E1E007F7E7E0154
:100E22008E0C8F0DAC0CAD0D7E3A7F98120D2F8E6D
:100E32000A8F0BD3E50B9400E50A64809480403C52
:100E4200D280AC0CAD0DE4120C5CE4FBFAF9783FF5
:100E5200120B51120C95120EE0C280AC0CAD0DE4D7
:100E6200120C5CE4FBFAF9783F120B51120C95124A
:0D0E72000EE0E50B150B70BB150A80B722D2
:03002300020F01C8
:100F0100C0D075D000C00730980BC298AF99750852
:0F0F1100008F098005309902C299D007D0D032E5
:100EAE008B0C8A0D890E8D0FE50FD39400401EAB6F
:100EBE000CAA0DA90E120D16FF120F207401250E8D
:0E0ECE00F50EE4350DF50D150FC29980DB22EF
:100F2000C2AFEFE5D024FF929B8F993099FDD2AFED
:010F3000229E
:100F31004398D0D2AFD2AC438920758DCCD28E22CA
:040EDC007F887E137A
:100EE000D3EF9400EE648094804015E4FCFD0DBDCA
:100EF00000010CED64024C70F5EF1F70E31E80E002
:010F000022CE
:100B5100EC4D6011E8497017ED33EC3304600DE49E
:100B6100FCFFFEFD22E933E8330470F8020D0112A7
:100B71000CCC58046009E4CC2481500628500902A9
:100B81000D0B284003020D08C0E0EB4A7044B98008
:100B910006D0E0FB020CF7EF4E701CBD8008EBFFA6
:100BA100EAFEE9FD80EBE98DF0A4FEE5F0020C3AE6
:100BB100E9CDF9EAFEEBFFEF89F0A4FCE5F0CE897F
:100BC100F0A42EFFE435F0CD89F0A42DFEE435F03C
:100BD1008067EF4E7005BD80D780C3EF8BF0A4AC6A
:100BE100F0EE8BF0A42CFCE435F0F8EF8AF0A42CA5
:100BF100E5F038FCE433CB8DF0A42CFCE5F03BF8B8
:100C0100EE8AF0A42CFCE5F038F8E433CF89F0A4A7
:100C11002CFCE5F038CF3400CE89F0A42FFFE5F0AD
:100C21003EFEE433C98DF0A42EFEE5F039CD8AF005
:100C3100A42FFFE5F03EFEE43DFD33D0E0FB50077D
:100C41000BBB000F020D0BEC2CFCEF33FFEE33FE60
:060C5100ED33FD020CE38F
:100C570075F020800E75F010800575F0087D007E18
:100C6700007F003392D530D503120D84EC3340104A
:100C7700EF33FFEE33FEED33FDEC33FCD5F0ED2221
:0E0C8700E5F0247EA2D513CC92E7CDCEFF225D
:100C9500EDD2E7CD33EC3392D524814006E4FFFE57
:100CA500FDFC22FCE4CFCECDCC24E0501174FF80B6
:100CB500EDC3CC13CCCD13CDCE13CECF13CF047053
:070CC500F030D5DE020D84C2
:100CCC00E9D2E7C933E833F892D5EDD2E7CD33EC6E
:070CDC0033FC5002B2D522E7
:100CE300EC30E7100FBF000C0EBE00080DBD000472
:100CF3000BEB6014A2D5EB13FCED92E7FD2274FF1E
:100D0300FCFDFEFF22E480F8A2D574FF13FC7D8076
:030D1300E480EF8A
:03000000020D925C
:0C0D9200787FE4F6D8FD75810F020DD9C2
:100D1600BB010689828A83E0225002E722BBFE02DB
:090D2600E32289828A83E493220E
:100D2F00BC000BBE0029EF8DF084FFADF022E4CCA8
:100D3F00F875F008EF2FFFEE33FEEC33FCEE9DEC71
:100D4F00984005FCEE9DFE0FD5F0E9E4CEFD22EDB7
:100D5F00F8F5F0EE8420D21CFEADF075F008EF2F01
:100D6F00FFED33FD4007985006D5F0F222C398FDF2
:050D7F000FD5F0EA228F
:0E0D8400C3E49FFFE49EFEE49DFDE49CFC2280
:100D9E00020800E493A3F8E493A34003F68001F263
:100DAE0008DFF48029E493A3F85407240CC8C33356
:100DBE00C4540F4420C8834004F456800146F6DF25
:100DCE00E4800B0102040810204080900F41E47E65
:100DDE00019360BCA3FF543F30E509541FFEE4931A
:100DEE00A360010ECF54C025E060A840B8E493A3E1
:100DFE00FAE493A3F8E493A3C8C582C8CAC583CA0C
:100E0E00F0A3C8C582C8CAC583CADFE9DEE780BEC3
:010F490000A7
:00000001FF
