:0F10AC00546F6E652047656E657261746F7200D8
:10103A00020D000002170000020F0001040900005F
:0C104A0000000213000002110000C100B1
:10107300D29443C32043C30143C31043C30843C3B0
:081083000443B10443C3402201
:03004B0002105749
:10105700C0E0C0D075D000C007AFC4EF24807005D2
:0C10670085C508D200D007D0D0D0E03200
:04101D00AD07AC0669
:10102100EC4470FFC294F5C53000FDC200AF058FDE
:08103100C53000FDC200D2949D
:011039002294
:100E6A00E4F5A05380F04390F012107312109C7BAB
:100E7A00FF7A1079AC7D0E7C00120F8EE50E647A33
:100E8A00450D7005F50F751004E50E6478450D7073
:100E9A0005F50F751002E50E6463450D7005F50F33
:100EAA00751001E50E6467450D70097FC67E011253
:100EBA000DC680EFE50E6468450D70097F957E01C9
:100ECA00120DC680EFE50E646A450D70097F7E7EBD
:100EDA0001120DC680EFE50E646B450D70097F5453
:100EEA007E01120DC680EFE50E646C450D708D7F94
:080EFA002F7E01120DC680EFEE
:100DC6008E198F1AAC19AD1AAE0FAF10120BC37C69
:100DD600277D10CFCDCFCECCCE120BD58E178F1848
:100DE600D3E5189400E517648094804076E4F51105
:100DF600F512AF12AE11120FDD8F0C8E0B8D0A8C11
:100E060009E4FFFE7D807C3FAB0CAA0BA90AA8096A
:100E16001208077B007AE0798278441208F88F0C72
:100E26008E0B8D0A8C09120ADC8E158F1612101D78
:100E3600AC19AD1AAE0FAF10120BC37C007D1812A1
:100E46000BD5120FBC0512E51270020511C39418DA
:100E5600E51164809480409AE5181518708215177C
:040E6600020DE62271
:03002300020FFECB
:100FFE00C0D075D000C00730980BC298AF99750D50
:0F100E00008F0E8005309902C299D007D0D032E2
:100F8E008B198A1A891B8D1CE51CD39400401EAB4D
:100F9E0019AA1AA91B120BAAFF12108B7401251B7A
:0E0FAE00F51BE4351AF51A151CC29980DB22DA
:10108B00C2AFEFE5D024FF929B8F993099FDD2AF81
:01109B002232
:10109C004398D0D2AFD2AC438920758DCCD28E225E
:100FBC00D3EF9400EE648094804015E4FCFD0DBDED
:100FCC0000010CED64024C70F5EF1F70E31E80E025
:010FDC0022F2
:100FDD00AD07AC06EC120AA37BDB7A0F79C978401A
:100FED001208F8E4FBFA79C07841120A01120CB626
:010FFD0022D1
:10080000020B48E86480F8E933E83360110460F0D3
:10081000ED33EC337009E8FCE9FDEAFEEBFF22045E
:1008200060DED3EB9FEA9EE99DE8C2E78CF0C2F759
:1008300095F0400CE8CCF8E9CDF9EACEFAEBCFFB25
:10084000120B1385D0F05804700320D5B3E8047060
:10085000075002B2D5020B5292D5EC0460F7E4CCFB
:10086000C0E0C398F8603B94186008400DD0E0FBEE
:10087000020B2AE4FBFAC9FC8028E830E406E4C94C
:10088000FBE4CAFCE830E305E4C9CACBFCE8540742
:100890006010F8C3E913F9EA13FAEB13FBEC13FC4D
:1008A000D8F130F52FC3E49CFCEF9BFFEE9AFEEDF0
:1008B00099FDD0E0FBEF4E4D4C701222DB03020B92
:1008C0004FEC2CFCEF33FFEE33FEED33FDED30E764
:1008D000EB020B2AEF2BFFEE3AFEED39FDD0E0FBE9
:1008E00050130BBB0003020B52ED13FDEE13FEEF92
:0808F00013FFEC13FC020B2ABC
:1008F800EC4D6011E8497017ED33EC3304600DE4FA
:10090800FCFFFEFD22E933E8330470F8020B4812BD
:100918000B1358046009E4CC2481500628500902BE
:100928000B52284003020B4FC0E0EB4A7044B980D9
:1009380006D0E0FB020B3EEF4E701CBD8008EBFFBB
:10094800EAFEE9FD80EBE98DF0A4FEE5F00209E19D
:10095800E9CDF9EAFEEBFFEF89F0A4FCE5F0CE89DA
:10096800F0A42EFFE435F0CD89F0A42DFEE435F097
:100978008067EF4E7005BD80D780C3EF8BF0A4ACC5
:10098800F0EE8BF0A42CFCE435F0F8EF8AF0A42C00
:10099800E5F038FCE433CB8DF0A42CFCE5F03BF813
:1009A800EE8AF0A42CFCE5F038F8E433CF89F0A403
:1009B8002CFCE5F038CF3400CE89F0A42FFFE5F009
:1009C8003EFEE433C98DF0A42EFEE5F039CD8AF061
:1009D800A42FFFE5F03EFEE43DFD33D0E0FB5007D9
:1009E8000BBB000F020B52EC2CFCEF33FFEE33FE77
:0609F800ED33FD020B2AA5
:1009FE00020B52EC5D046005E859047003020B48CB
:100A0E00120B13580460F6EC4860F2EC7004FDFE15
:100A1E00FF22C860DB2481C85009C39860025006CB
:100A2E00020B4F9850CAF582E9294B4A7005AB82EA
:100A3E00020B3E75F0007C1A7880C3EF9BEE9AEDA8
:100A4E0099400DC3EF9BFFEE9AFEED99FDE842F043
:100A5E00DC23ACF0D0E0FFD0E0FED0E0FDAB822096
:100A6E00E7101BEB60BAEC2CFCEF33FFEE33FEED20
:100A7E0033FD020B2AE803F830E705C0F075F000ED
:100A8E00EF2FFFEE33FEED33FD40B830E7C280AA04
:100A9E0075F020800E75F010800575F0087D007ED3
:100AAE00007F003392D530D503120C2AEC33401060
:100ABE00EF33FFEE33FEED33FDEC33FCD5F0ED22DC
:0E0ACE00E5F0247EA2D513CC92E7CDCEFF2218
:100ADC00EDD2E7CD33EC3392D524814006E4FFFE12
:100AEC00FDFC22FCE4CFCECDCC24E0501174FF8071
:100AFC00EDC3CC13CCCD13CDCE13CECF13CF04700E
:070B0C00F030D5DE020C2AD7
:100C58003A70FA83BCAAE9E43E81E0F8BF9DE9E670
:100C68003F80000039283C1ABB9969663DA335E3EB
:100C7800BF255DE73FC90FDB418DDBCCC44936EEAC
:100C880045C9913FC5B0F83D3F800000C317F53412
:100C9800452FFA73C60AFDDD120D4704A2E1920141
:100CA8001420E015900C587404120B5D8026120D68
:100CB8004730E102B20120E0EB8C1B8D1C8E1D8FAA
:100CC8001E900C6C7404120B5DA81BA91CAA1DAB0A
:100CD8001E1208F8ED4C6007300104EC6480FC2219
:100CE800120D47C0E08C1B8D1C8E1D8F1E900C9022
:100CF8007403120B5DA81BA91CAA1DAB1E1208F8D1
:100D0800ECC51BFCEDC51CFDEEC51DFEEFC51EFFA9
:100D1800900C807403120B5DD082A81BA91CAA1D1D
:100D2800AB1EE58230E007120A01B20180A6EFCBC4
:100D3800FFEECAFEEDC9FDECC8FC120A018095ED74
:100D480033EC547FCC33920124605007D0E0D0E0DC
:100D5800020B487B837AF97922783E1208F8EDF97C
:100D680033ECF83324815011EFFBEEFA120ADC124F
:100D78000A9EECB2E7FC120807ED33EC33602F242F
:100D880003F8C313FCED92E7FDE82481E4501FEC5F
:100D9800F8EDF9EEFAEFFB120ADCEF04C2E0FCF51D
:100DA80082120AA8ECB2E7FC120807E58203FAED02
:0E0DB80033EC3360071413FCED92E7FDEA22E2
:100B1300E9D2E7C933E833F892D5EDD2E7CD33EC28
:070B230033FC5002B2D522A1
:100B2A00EC30E7100FBF000C0EBE00080DBD00042C
:100B3A000BEB6014A2D5EB13FCED92E7FD2274FFD8
:100B4A00FCFDFEFF22E480F8A2D574FF13FC7D8031
:030B5A00E480EF45
:100B5D00C0E0EFFBEEFAEDF9ECF81208F8D0E0F595
:100B6D00F0EFFBEEFAEDF9ECF8120C38A3A3A3A30A
:100B7D00E8C0E0E9C0E0EAC0E0EBC0E0C0F0120878
:100B8D00F8120C48A3A3A3A3120807D0F0D0E0FBE2
:0D0B9D00D0E0FAD0E0F9D0E0F8D5F0D42295
:03000000020F02EA
:0C0F0200787FE4F6D8FD758120020F49CD
:100BAA00BB010689828A83E0225002E722BBFE0249
:090BBA00E32289828A83E493227C
:100BC300EF8DF0A4A8F0CF8CF0A428CE8DF0A42E46
:020BD300FE2200
:100BD500BC000BBE0029EF8DF084FFADF022E4CC04
:100BE500F875F008EF2FFFEE33FEEC33FCEE9DECCD
:100BF500984005FCEE9DFE0FD5F0E9E4CEFD22ED13
:100C0500F8F5F0EE8420D21CFEADF075F008EF2F5C
:100C1500FFED33FD4007985006D5F0F222C398FD4D
:050C25000FD5F0EA22EA
:0E0C2A00C3E49FFFE49EFEE49DFDE49CFC22DB
:100C3800E493FC740193FD740293FE740393FF2202
:100C4800E493F8740193F9740293FA740393FB2202
:100F0E00020E6AE493A3F8E493A34003F68001F281
:100F1E0008DFF48029E493A3F85407240CC8C333E4
:100F2E00C4540F4420C8834004F456800146F6DFB3
:100F3E00E4800B010204081020408090103AE47EF9
:100F4E00019360BCA3FF543F30E509541FFEE493A8
:100F5E00A360010ECF54C025E060A840B8E493A36F
:100F6E00FAE493A3F8E493A3C8C582C8CAC583CA9A
:100F7E00F0A3C8C582C8CAC583CADFE9DEE780BE52
:011056000099
:00000001FF
