:0F11E800546F6E652047656E657261746F72009B
:10117600020D000002170000020F00010409000022
:0C11860000000213000002110000C10074
:1011AF00D29443C32043C30143C31043C30843C373
:0811BF000443B10443C34022C4
:03004B000211930C
:10119300C0E0C0D075D000C007AFC4EF2480700595
:0C11A30085C508D200D007D0D0D0E032C3
:04115900AD07AC062C
:10115D00EC4470FFC294F5C53000FDC200AF058FA1
:08116D00C53000FDC200D29460
:011175002257
:100FA600E4F5A05380F04390F01211AF1211D87BF4
:100FB600FF7A1179E87D0E7C001210CAE50E647A7C
:100FC600450D7005F50F751004E50E6478450D7036
:100FD60005F50F751002E50E6463450D7005F50FF6
:100FE600751001E50E6467450D70097FC67E011216
:100FF6000C5880EFE50E6468450D70097F957E01FB
:10100600120C5880EFE50E646A450D70097F7E7EEE
:1010160001120C5880EFE50E646B450D70097F5484
:101026007E01120C5880EFE50E646C450D708D7FC5
:081036002F7E01120C5880EF1F
:100C58008E218F22AC21AD22AE0FAF10120BC37CB8
:100C6800277D10CFCDCFCECCCE120BD58E178F18B7
:100C7800D3E5189400E517648094805003020E377A
:100C8800E4F511F512E512451170077FFF7E071292
:100C98001159E5126401451170077F117E0A12117E
:100CA80059E5126402451170077FFE7E0B12115937
:100CB800E5126403451170077FA67E0D121159E5F0
:100CC800126404451170077FEC7E0E121159E5126B
:100CD8006405451170077FB87E0F121159E512643B
:100CE80006451170077FFE7E0F121159E512640741
:100CF800451170077FB87E0F121159E51264084537
:100D08001170077FEC7E0E121159E5126409451126
:100D180070077FA67E0D121159E512640A451170FD
:100D2800077FFE7E0B121159E512640B45117007FF
:100D38007F117E0A121159E512640C451170077F64
:100D4800FF7E07121159E512640D451170077FEDFA
:100D58007E05121159E512640E451170077FFF7E5A
:100D680003121159E512640F451170077F577E026F
:100D7800121159E5126410451170077F127E011295
:100D88001159E5126411451170067F46FE1211597A
:100D9800E512641245117005FFFE121159E512643F
:100DA80013451170067F46FE121159E51264144569
:100DB8001170077F127E01121159E5126415451151
:100DC80070077F587E02121159E51264164511709A
:100DD800077FFF7E03121159E5126417451170074A
:100DE8007FED7E05121159AC21AD22AE0FAF101266
:100DF8000BC3AC06AD07E41209AB7BB47AAA792A17
:100E0800783D1208001209E41210F80512E5127074
:100E1800020511C39418E511648094805003020CF4
:100E28008DE51815186003020C781517020C782246
:0300230002113A8D
:10113A00C0D075D000C00730980BC298AF99750D12
:0F114A00008F0E8005309902C299D007D0D032A5
:1010CA008B218A2289238D24E524D39400401EABE8
:1010DA0021AA22A923120BAAFF1211C774012523E0
:0E10EA00F523E43522F5221524C29980DB227D
:1011C700C2AFEFE5D024FF929B8F993099FDD2AF44
:0111D70022F5
:1011D8004398D0D2AFD2AC438920758DCCD28E2221
:1010F800D3EF9400EE648094804015E4FCFD0DBDB0
:1011080000010CED64024C70F5EF1F70E31E80E0E7
:0111180022B4
:10111900AD07AC06EC1209AB7BDB7A0F79C97840D5
:10112900120800E4FBFA79C07841120909120E96F7
:011139002293
:10080000EC4D6011E8497017ED33EC3304600DE4F2
:10081000FCFFFEFD22E933E8330470F8020A5012AF
:100820000A1B58046009E4CC2481500628500902B0
:100830000A5A284003020A57C0E0EB4A7044B980C4
:1008400006D0E0FB020A46EF4E701CBD8008EBFFAD
:10085000EAFEE9FD80EBE98DF0A4FEE5F00208E98F
:10086000E9CDF9EAFEEBFFEF89F0A4FCE5F0CE89D3
:10087000F0A42EFFE435F0CD89F0A42DFEE435F090
:100880008067EF4E7005BD80D780C3EF8BF0A4ACBE
:10089000F0EE8BF0A42CFCE435F0F8EF8AF0A42CF9
:1008A000E5F038FCE433CB8DF0A42CFCE5F03BF80C
:1008B000EE8AF0A42CFCE5F038F8E433CF89F0A4FC
:1008C0002CFCE5F038CF3400CE89F0A42FFFE5F002
:1008D0003EFEE433C98DF0A42EFEE5F039CD8AF05A
:1008E000A42FFFE5F03EFEE43DFD33D0E0FB5007D2
:1008F0000BBB000F020A5AEC2CFCEF33FFEE33FE69
:06090000ED33FD020A3296
:10090600020A5AEC5D046005E859047003020A50B5
:10091600120A1B580460F6EC4860F2EC7004FDFE07
:10092600FF22C860DB2481C85009C39860025006C4
:10093600020A579850CAF582E9294B4A7005AB82DC
:10094600020A4675F0007C1A7880C3EF9BEE9AED9A
:1009560099400DC3EF9BFFEE9AFEED99FDE842F03C
:10096600DC23ACF0D0E0FFD0E0FED0E0FDAB82208F
:10097600E7101BEB60BAEC2CFCEF33FFEE33FEED19
:1009860033FD020A32E803F830E705C0F075F000DF
:10099600EF2FFFEE33FEED33FD40B830E7C280AAFD
:1009A60075F020800E75F010800575F0087D007ECC
:1009B600007F003392D530D503120C2AEC33401059
:1009C600EF33FFEE33FEED33FDEC33FCD5F0ED22D5
:0E09D600E5F0247EA2D513CC92E7CDCEFF2211
:1009E400EDD2E7CD33EC3392D524814006E4FFFE0B
:1009F400FDFC22FCE4CFCECDCC24E0501174FF806A
:100A0400EDC3CC13CCCD13CDCE13CECF13CF047006
:070A1400F030D5DE020C2AD0
:100E38003A70FA83BCAAE9E43E81E0F8BF9DE9E68E
:100E48003F80000039283C1ABB9969663DA335E309
:100E5800BF255DE73FC90FDB418DDBCCC44936EECA
:100E680045C9913FC5B0F83D3F800000C317F53430
:100E7800452FFA73C60AFDDD120F2704A2E192017D
:100E88001420E015900E387404120B5D8026120FA2
:100E98002730E102B20120E0EB8C198D1A8E1B8FEE
:100EA8001C900E4C7404120B5DA819A91AAA1BAB4E
:100EB8001C120800ED4C6007300104EC6480FC2231
:100EC800120F27C0E08C198D1A8E1B8F1C900E7084
:100ED8007403120B5DA819A91AAA1BAB1C120800EF
:100EE800ECC519FCEDC51AFDEEC51BFEEFC51CFFD0
:100EF800900E607403120B5DD082A819A91AAA1B60
:100F0800AB1CE58230E007120909B20180A6EFCBDD
:100F1800FFEECAFEEDC9FDECC8FC1209098095ED8B
:100F280033EC547FCC33920124605007D0E0D0E0FA
:100F3800020A507B837AF97922783E120800EDF98B
:100F480033ECF83324815011EFFBEEFA1209E41266
:100F580009A6ECB2E7FC120A6CED33EC33602F24DF
:100F680003F8C313FCED92E7FDE82481E4501FEC7D
:100F7800F8EDF9EEFAEFFB1209E4EF04C2E0FCF534
:100F8800821209B0ECB2E7FC120A6CE58203FAEDB2
:0E0F980033EC3360071413FCED92E7FDEA2200
:100A1B00E9D2E7C933E833F892D5EDD2E7CD33EC21
:070A2B0033FC5002B2D5229A
:100A3200EC30E7100FBF000C0EBE00080DBD000425
:100A42000BEB6014A2D5EB13FCED92E7FD2274FFD1
:100A5200FCFDFEFF22E480F8A2D574FF13FC7D802A
:030A6200E480EF3E
:100A6500020A50E86480F8E933E83360110460F065
:100A7500ED33EC337009E8FCE9FDEAFEEBFF2204F7
:100A850060DED3EB9FEA9EE99DE8C2E78CF0C2F7F2
:100A950095F0400CE8CCF8E9CDF9EACEFAEBCFFBBE
:100AA500120A1B85D0F05804700320D5B3E80470F2
:100AB500075002B2D5020A5A92D5EC0460F7E4CC8D
:100AC500C0E0C398F8603B94186008400DD0E0FB87
:100AD500020A32E4FBFAC9FC8028E830E406E4C9DE
:100AE500FBE4CAFCE830E305E4C9CACBFCE85407DB
:100AF5006010F8C3E913F9EA13FAEB13FBEC13FCE6
:100B0500D8F130F52FC3E49CFCEF9BFFEE9AFEED88
:100B150099FDD0E0FBEF4E4D4C701222DB03020A2B
:100B250057EC2CFCEF33FFEE33FEED33FDED30E7F4
:100B3500EB020A32EF2BFFEE3AFEED39FDD0E0FB7A
:100B450050130BBB0003020A5AED13FDEE13FEEF23
:080B550013FFEC13FC020A324D
:100B5D00C0E0EFFBEEFAEDF9ECF8120800D0E0F58D
:100B6D00F0EFFBEEFAEDF9ECF8120C38A3A3A3A30A
:100B7D00E8C0E0E9C0E0EAC0E0EBC0E0C0F0120878
:100B8D0000120C48A3A3A3A3120A6CD0F0D0E0FB73
:0D0B9D00D0E0FAD0E0F9D0E0F8D5F0D42295
:0300000002103EAD
:0C103E00787FE4F6D8FD7581240210854F
:100BAA00BB010689828A83E0225002E722BBFE0249
:090BBA00E32289828A83E493227C
:100BC300EF8DF0A4A8F0CF8CF0A428CE8DF0A42E46
:020BD300FE2200
:100BD500BC000BBE0029EF8DF084FFADF022E4CC04
:100BE500F875F008EF2FFFEE33FEEC33FCEE9DECCD
:100BF500984005FCEE9DFE0FD5F0E9E4CEFD22ED13
:100C0500F8F5F0EE8420D21CFEADF075F008EF2F5C
:100C1500FFED33FD4007985006D5F0F222C398FD4D
:050C25000FD5F0EA22EA
:0E0C2A00C3E49FFFE49EFEE49DFDE49CFC22DB
:100C3800E493FC740193FD740293FE740393FF2202
:100C4800E493F8740193F9740293FA740393FB2202
:10104A00020FA6E493A3F8E493A34003F68001F207
:10105A0008DFF48029E493A3F85407240CC8C333A7
:10106A00C4540F4420C8834004F456800146F6DF76
:10107A00E4800B0102040810204080901176E47E7F
:10108A00019360BCA3FF543F30E509541FFEE4936B
:10109A00A360010ECF54C025E060A840B8E493A332
:1010AA00FAE493A3F8E493A3C8C582C8CAC583CA5D
:1010BA00F0A3C8C582C8CAC583CADFE9DEE780BE15
:01119200005C
:00000001FF
