:0F105500546F6E652047656E657261746F72002F
:100FE30002560000026000000258000104220000C3
:0C0FF3000000025C0000025A0000C10077
:10101C00D29443C32043C30143C31043C30843C307
:08102C000443B10443C3402258
:100C8B00E55B455A700CE55B25E02426F8760708F2
:100C9B0076FFE55B6401455A700CE55B25E0242685
:100CAB00F8760A087611E55B6402455A700CE55B31
:100CBB0025E02426F8760B0876FEE55B6403455A9F
:100CCB00700CE55B25E02426F8760D0876A6E55B2F
:100CDB006404455A700CE55B25E02426F8760E0873
:100CEB0076ECE55B6405455A700CE55B25E0242644
:100CFB00F8760F0876B8E55B6406455A700CE55B31
:100D0B0025E02426F8760F0876FEE55B6407455A46
:100D1B00700CE55B25E02426F8760F0876B8E55BCA
:100D2B006408455A700CE55B25E02426F8760E081E
:100D3B0076ECE55B6409455A700CE55B25E02426EF
:100D4B00F8760D0876A6E55B640A455A700CE55BF0
:100D5B0025E02426F8760B0876FEE55B640B455AF6
:100D6B00700CE55B25E02426F8760A087611E55B26
:100D7B00640C455A700CE55B25E02426F8760708D1
:100D8B0076FFE55B640D455A700CE55B25E0242688
:100D9B00F876050876EDE55B640E455A700CE55B5D
:100DAB0025E02426F876030876FFE55B640F455AA9
:100DBB00700CE55B25E02426F87602087657E55B98
:100DCB006410455A700CE55B25E02426F876010883
:100DDB007612E55B6411455A700CE55B25E0242621
:100DEB00F87600087646E55B6412455A700BE55BB6
:100DFB0025E02426F8E4F608F6E55B6413455A7003
:100E0B000CE55B25E02426F87600087646E55B6466
:100E1B0014455A700CE55B25E02426F8760108761C
:100E2B0012E55B6415455A700CE55B25E02426F84A
:100E3B007602087658E55B6416455A700CE55B251F
:100E4B00E02426F876030876FFE55B6417455A70B5
:0E0E5B000CE55B25E02426F876050876ED22EE
:03004B00021000A0
:10100000C0E0C0D075D000C007AFC4EF2480700529
:0C10100085C521D200D007D0D0D0E0323E
:040F4500AD07AC0642
:030F4900E4FBFACC
:100F4C00E4F50AEC4470F50AC294F5C53000FDC214
:0D0F5C00008D0A850AC53000FDC200D29448
:0B0F69000BBB00010AEB64024A70D8C9
:010F7400225A
:10080000E4F5A05380F04390F012101C1210451232
:100810000C8B7BFF7A1079557D0E7C00120F75E5ED
:1008200057647A45567005F558755904E55764784C
:1008300045567005F558755902E55764634556707D
:1008400005F558755901E5576467455670097FC627
:100850007E01120EF580EFE5576468455670097FFA
:10086000957E01120EF580EFE557646A45567009D2
:100870007F7E7E01120EF580EFE557646B45567062
:10088000097F547E01120EF580EFE557646C4556E2
:1008900070097F2F7E01120EF580EFE557647145D8
:1008A0005670097F1E7E01120EF580EFE5576477C2
:1008B000455670087FFFFE120EF580F0E55764651F
:1008C000455670087FE3FE120EF580F0E55764721E
:1008D000455670087FCAFE120EF580F0E557647425
:1008E000455670087FBFFE120EF580F0E55764791B
:1008F000455670087FAAFE120EF580F0E557647524
:10090000455670087F97FE120EF580F0E557646932
:10091000455670087F8FFE120EF580F0E557646F24
:10092000455670087F7FFE120EF580F0E557647023
:10093000455670087F72FE120EF580F0E55764216F
:10094000455670097FB47E06120EF580EFE55764B8
:1009500040455670097FA37E05120EF580EFE557DE
:100960006423455670097F067E05120EF580EFE57B
:10097000576424455670097F397E04120EF580EFC6
:10098000E5576425455670097FC37E03120EF58036
:10099000EFE557645E455670097F5A7E03120EF5E7
:1009A00080EFE5576426455670097FD27E02120E0D
:1009B000F580EFE557642A455670097F837E021261
:1009C0000EF580EFE5576428455670097F1C7E02BE
:1009D000120EF580EFE5576429455670097FE27ED7
:1009E00001120EF580EFE5576431455670097FAD71
:1009F0007E01120EF580EFE5576432455670097F8F
:100A0000697E01120EF580EFE55764334556700993
:100A10007F417E01120EF580EFE557643445567034
:100A2000097F0E7E01120EF580EFE55764354556BD
:100A300070087FF1FE120EF580F0E55764364556DA
:100A400070087FD6FE120EF580F0E55764374556E4
:100A500070087FB4FE120EF580F0E55764384556F5
:100A600070087FA1FE120EF580F0E55764394556F7
:100A700070087F87FE120EF580F0E557643045560A
:0D0A8000600302081F7F78FE120EF580ED66
:100EF5008E088F09E4F55CF55DE55D25E02426F8AF
:100F0500E6FE08E6FF120F45AC08AD09AE58AF592D
:100F1500120C6BAC06AD07E4120B987BB47AAA7978
:100F25002A783D120A8D120BD1120FA3055DE55DDE
:100F35007002055CC39418E55C6480948040BA2215
:03002300020FC405
:100FC400C0D075D000C00730980BC298AF99755641
:0F0FD400008F578005309902C299D007D0D032D4
:100F75008B088A09890A8D0BE50BD39400401EABBB
:100F850008AA09A90A120C52FF1210347401250A85
:0E0F9500F50AE43509F509150BC29980DB2237
:10103400C2AFEFE5D024FF929B8F993099FDD2AFD8
:011044002289
:101045004398D0D2AFD2AC438920758DCCD28E22B5
:100FA300D3EF9400EE648094804015E4FCFD0DBD06
:100FB30000010CED64024C70F5EF1F70E31E80E03E
:010FC300220B
:100A8D00EC4D6011E8497017ED33EC3304600DE463
:100A9D00FCFFFEFD22E933E8330470F8020C3D1231
:100AAD000C0858046009E4CC248150062850090232
:100ABD000C47284003020C44C0E0EB4A7044B98057
:100ACD0006D0E0FB020C33EF4E701CBD8008EBFF2F
:100ADD00EAFEE9FD80EBE98DF0A4FEE5F0020B7670
:100AED00E9CDF9EAFEEBFFEF89F0A4FCE5F0CE8944
:100AFD00F0A42EFFE435F0CD89F0A42DFEE435F001
:100B0D008067EF4E7005BD80D780C3EF8BF0A4AC2E
:100B1D00F0EE8BF0A42CFCE435F0F8EF8AF0A42C69
:100B2D00E5F038FCE433CB8DF0A42CFCE5F03BF87C
:100B3D00EE8AF0A42CFCE5F038F8E433CF89F0A46C
:100B4D002CFCE5F038CF3400CE89F0A42FFFE5F072
:100B5D003EFEE433C98DF0A42EFEE5F039CD8AF0CA
:100B6D00A42FFFE5F03EFEE43DFD33D0E0FB500742
:100B7D000BBB000F020C47EC2CFCEF33FFEE33FEEA
:060B8D00ED33FD020C1F18
:100B930075F020800E75F010800575F0087D007EDD
:100BA300007F003392D530D503120C7DEC33401017
:100BB300EF33FFEE33FEED33FDEC33FCD5F0ED22E6
:0E0BC300E5F0247EA2D513CC92E7CDCEFF2222
:100BD100EDD2E7CD33EC3392D524814006E4FFFE1C
:100BE100FDFC22FCE4CFCECDCC24E0501174FF807B
:100BF100EDC3CC13CCCD13CDCE13CECF13CF047018
:070C0100F030D5DE020C7D8E
:100C0800E9D2E7C933E833F892D5EDD2E7CD33EC32
:070C180033FC5002B2D522AB
:100C1F00EC30E7100FBF000C0EBE00080DBD000436
:100C2F000BEB6014A2D5EB13FCED92E7FD2274FFE2
:100C3F00FCFDFEFF22E480F8A2D574FF13FC7D803B
:030C4F00E480EF4F
:03000000020E6984
:0C0E6900787FE4F6D8FD758161020EB0C0
:100C5200BB010689828A83E0225002E722BBFE02A0
:090C6200E32289828A83E49322D3
:100C6B00EF8DF0A4A8F0CF8CF0A428CE8DF0A42E9D
:020C7B00FE2257
:0E0C7D00C3E49FFFE49EFEE49DFDE49CFC2288
:100E7500020800E493A3F8E493A34003F68001F28B
:100E850008DFF48029E493A3F85407240CC8C3337E
:100E9500C4540F4420C8834004F456800146F6DF4D
:100EA500E4800B0102040810204080900FE3E47EEB
:100EB500019360BCA3FF543F30E509541FFEE49342
:100EC500A360010ECF54C025E060A840B8E493A309
:100ED500FAE493A3F8E493A3C8C582C8CAC583CA34
:100EE500F0A3C8C582C8CAC583CADFE9DEE780BEEC
:010FFF0000F1
:00000001FF
