:10094200546F6E652047656E657261746F720064E4
:050952006F6E6520003E
:0809780002080000020A000061
:10088C00E4F590F5801209687BFF7A0979427D0EB8
:10089C007C001208BBE509647A450870F8120981DE
:0F08AC007BFF7A0979517D047C001208BB80E63E
:010981002253
:0300230002090AC5
:10090A00C0D075D000C00730980BC298AF9975084F
:0F091A00008F098005309902C299D007D0D032E2
:1008BB008B0C8A0D890E8D0FE50FD39400401EAB68
:1008CB000CAA0DA90E120929FF1209577401250E46
:0E08DB00F50EE4350DF50D150FC29980DB22E8
:10095700C2AFEFE5D024FF929B8F993099FDD2AFBC
:01096700226D
:100968004398D0D2AFD2AC438920758DCCD28E2299
:1008E900D3EF9400EE648094804015E4FCFD0DBDC7
:1008F90000010CED64024C70F5EF1F70E31E80E0FF
:0109090022CB
:03000000020800F3
:0C080000787FE4F6D8FD75810F020847F0
:10092900BB010689828A83E0225002E722BBFE02CC
:09093900E32289828A83E49322FF
:10080C0002088CE493A3F8E493A34003F68001F26E
:10081C0008DFF48029E493A3F85407240CC8C333ED
:10082C00C4540F4420C8834004F456800146F6DFBC
:10083C00E4800B0102040810204080900978E47ECB
:10084C00019360BCA3FF543F30E509541FFEE493B1
:10085C00A360010ECF54C025E060A840B8E493A378
:10086C00FAE493A3F8E493A3C8C582C8CAC583CAA3
:10087C00F0A3C8C582C8CAC583CADFE9DEE780BE5B
:010980000076
:00000001FF
