:100D7000546F6E652047656E657261746F7200070F
:100D8000FF0A110BFE0DA60EEC0FB80FFE0FB80EEA
:100D9000EC0DA60BFE0A1107FF05ED03FF0257013C
:0F0DA000120046000000460112025803FF05ED45
:100E4D00020D000002170000020F0001040900004E
:0C0E5D0000000213000002110000C100A0
:100E8600D29443C32043C30143C31043C30843C39F
:080E96000443B10443C34022F0
:03004B00020E6A38
:100E6A00C0E0C0D075D000C007AFC4EF24807005C1
:0C0E7A0085C508D200D007D0D0D0E032EF
:040DAF00AD07AC06DA
:030DB300E4FBFA64
:100DB600E4F51BEC4470F51BC294F5C53000FDC28A
:0D0DC600008D1B851BC53000FDC200D294BE
:0B0DD3000BBB00010AEB64024A70D861
:010DDE0022F2
:10080000E4F5A05380F04390F0120E86120EAF7BF9
:10081000FF7A0D79707D0E7C00120DDFE50E647A93
:10082000450D7005F50F751004E50E6478450D70E3
:1008300005F50F751002E50E6463450D7005F50FA3
:10084000751001E50E6467450D70097FC67E0112C3
:100850000D1480EFE50E6468450D70097F957E01EB
:10086000120D1480EFE50E646A450D70097F7E7EDF
:1008700001120D1480EFE50E646B450D70097F5475
:100880007E01120D1480EFE50E646C450D70097F3A
:100890002F7E01120D1480EFE50E6471450D700975
:1008A0007F1E7E01120D1480EFE50E6477450D70FA
:1008B000087FFFFE120D1480F0E50E6465450D7093
:1008C000087FE3FE120D1480F0E50E6472450D7092
:1008D000087FCAFE120D1480F0E50E6474450D7099
:1008E000087FBFFE120D1480F0E50E6479450D708F
:1008F000087FAAFE120D1480F0E50E6475450D7098
:10090000087F97FE120D1480F0E50E6469450D70A6
:10091000087F8FFE120D1480F0E50E646F450D7098
:10092000087F7FFE120D1480F0E50E6470450D7097
:10093000087F72FE120D1480F0E50E6421450D70E3
:10094000097FB47E06120D1480EFE50E6440450D5C
:1009500070097FA37E05120D1480EFE50E64234518
:100960000D70097F067E05120D1480EFE50E6424DC
:10097000450D70097F397E04120D1480EFE50E6479
:1009800025450D70097FC37E03120D1480EFE50E1F
:10099000645E450D70097F5A7E03120D1480EFE5E9
:1009A0000E6426450D70097FD27E02120D1480EF71
:1009B000E50E642A450D70097F837E02120D1480B6
:1009C000EFE50E6428450D70097F1C7E02120D14A0
:1009D00080EFE50E6429450D70097FE27E01120D5E
:1009E0001480EFE50E6431450D70097FAD7E011274
:1009F0000D1480EFE50E6432450D70097F697E01AC
:100A0000120D1480EFE50E6433450D70097F417EB1
:100A100001120D1480EFE50E6434450D70097F0E50
:100A20007E01120D1480EFE50E6435450D70087FD0
:100A3000F1FE120D1480F0E50E6436450D70087F4E
:100A4000D6FE120D1480F0E50E6437450D70087F58
:100A5000B4FE120D1480F0E50E6438450D70087F69
:100A6000A1FE120D1480F0E50E6439450D70087F6B
:100A700087FE120D1480F0E50E6430450D60030210
:0A0A8000081C7F78FE120D1480EDB3
:100D14008E198F1AE4F513F514E51425E0FFE51395
:100D240033FE747F2FF582740D3EF583E493FE74D5
:100D34000193FF120DAFAC19AD1AAE0FAF10120C28
:100D440068AC06AD07E4120B957BD07A8879887875
:100D54003B120A8A120BCE120E0D0514E514700212
:0C0D64000513C39418E513940040AE2260
:03002300020E2E9C
:100E2E00C0D075D000C00730980BC298AF99750D21
:0F0E3E00008F0E8005309902C299D007D0D032B4
:100DDF008B198A1A891B8D1CE51CD39400401EABFE
:100DEF0019AA1AA91B120C4FFF120E9E7401251B74
:0E0DFF00F51BE4351AF51A151CC29980DB228B
:100E9E00C2AFEFE5D024FF929B8F993099FDD2AF70
:010EAE002221
:100EAF004398D0D2AFD2AC438920758DCCD28E224D
:100E0D00D3EF9400EE648094804015E4FCFD0DBD9D
:100E1D0000010CED64024C70F5EF1F70E31E80E0D5
:010E2D0022A2
:100A8A00EC4D6011E8497017ED33EC3304600DE466
:100A9A00FCFFFEFD22E933E8330470F8020C3A1237
:100AAA000C0558046009E4CC248150062850090238
:100ABA000C44284003020C41C0E0EB4A7044B98060
:100ACA0006D0E0FB020C30EF4E701CBD8008EBFF35
:100ADA00EAFEE9FD80EBE98DF0A4FEE5F0020B7376
:100AEA00E9CDF9EAFEEBFFEF89F0A4FCE5F0CE8947
:100AFA00F0A42EFFE435F0CD89F0A42DFEE435F004
:100B0A008067EF4E7005BD80D780C3EF8BF0A4AC31
:100B1A00F0EE8BF0A42CFCE435F0F8EF8AF0A42C6C
:100B2A00E5F038FCE433CB8DF0A42CFCE5F03BF87F
:100B3A00EE8AF0A42CFCE5F038F8E433CF89F0A46F
:100B4A002CFCE5F038CF3400CE89F0A42FFFE5F075
:100B5A003EFEE433C98DF0A42EFEE5F039CD8AF0CD
:100B6A00A42FFFE5F03EFEE43DFD33D0E0FB500745
:100B7A000BBB000F020C44EC2CFCEF33FFEE33FEF0
:060B8A00ED33FD020C1C1E
:100B900075F020800E75F010800575F0087D007EE0
:100BA000007F003392D530D503120C7AEC3340101D
:100BB000EF33FFEE33FEED33FDEC33FCD5F0ED22E9
:0E0BC000E5F0247EA2D513CC92E7CDCEFF2225
:100BCE00EDD2E7CD33EC3392D524814006E4FFFE1F
:100BDE00FDFC22FCE4CFCECDCC24E0501174FF807E
:100BEE00EDC3CC13CCCD13CDCE13CECF13CF04701B
:070BFE00F030D5DE020C7A95
:100C0500E9D2E7C933E833F892D5EDD2E7CD33EC35
:070C150033FC5002B2D522AE
:100C1C00EC30E7100FBF000C0EBE00080DBD000439
:100C2C000BEB6014A2D5EB13FCED92E7FD2274FFE5
:100C3C00FCFDFEFF22E480F8A2D574FF13FC7D803E
:030C4C00E480EF52
:03000000020C8867
:0C0C8800787FE4F6D8FD758120020CCFC7
:100C4F00BB010689828A83E0225002E722BBFE02A3
:090C5F00E32289828A83E49322D6
:100C6800EF8DF0A4A8F0CF8CF0A428CE8DF0A42EA0
:020C7800FE225A
:0E0C7A00C3E49FFFE49EFEE49DFDE49CFC228B
:100C9400020800E493A3F8E493A34003F68001F26E
:100CA40008DFF48029E493A3F85407240CC8C33361
:100CB400C4540F4420C8834004F456800146F6DF30
:100CC400E4800B0102040810204080900E4DE47E65
:100CD400019360BCA3FF543F30E509541FFEE49325
:100CE400A360010ECF54C025E060A840B8E493A3EC
:100CF400FAE493A3F8E493A3C8C582C8CAC583CA17
:100D0400F0A3C8C582C8CAC583CADFE9DEE780BECE
:010E69000088
:00000001FF
